:1000000016EF00F00000000000EF00F0000000001C
:0A0010000000000000000000F3D71C
:10001C000900F5CFE6FF0006FBE10106F9E112004D
:10002C00156A166A030E176E186A000E9416000EE7
:10003C009516000E8216000E8316030E176E000E18
:10004C00186E175018105FE0156A166A800E006E55
:10005C00800E1618005C02E11550060821E3000E14
:10006C00821615C001F0030E006E015004E000363C
:10007C000090FF0FFBD700508212060E0B6E130E72
:10008C000C6EAD0E0D6E0D2EFED70C2EFCD70B2E5E
:10009C00FAD700000000020E1526000E1622D6D745
:1000AC00040E156E000E166E800E006E800E161865
:1000BC00005C02E11550000821E2000E821615C00A
:1000CC0001F0030E006E015004E000360090FF0FAB
:1000DC00FBD700508212060E0B6E130E0C6EAD0E7B
:1000EC000D6E0D2EFED70C2EFCD70B2EFAD7000062
:1000FC000000020E155E000E165AD6D7010E175EC2
:10010C00000E185A9ED7000E8216030E176E000EA4
:10011C00186E175018105FE0156A166A800E006E84
:10012C00800E1618005C02E11550030821E3000E46
:10013C00831615C001F0070E006E015004E0003666
:10014C000090FF0FFBD700508312060E0B6E130EA0
:10015C000C6EAD0E0D6E0D2EFED70C2EFCD70B2E8D
:10016C00FAD700000000030E1526000E1622D6D773
:10017C00050E156E000E166E800E1618006E800E93
:10018C00005C02E1020E155C21E3000E831615C023
:10019C0001F0070E006E015004E000360090FF0FD6
:1001AC00FBD700508312060E0B6E130E0C6EAD0EA9
:1001BC000D6E0D2EFED70C2EFCD70B2EFAD7000091
:1001CC000000030E155E000E165AD6D7010E175EF0
:1001DC00000E185A9ED7000E8316030E176E000ED3
:1001EC00186E175018103BE0156A166A800E006ED8
:1001FC00800E1618005C02E1155007082BE315C0A1
:10020C0000F0800E026E005004E00232029EFF0FDE
:10021C00FBD715C001F0010E006E015004E0003652
:10022C000090FF0FFBD70250001200508212060EF6
:10023C000B6E130E0C6EAD0E0D6E0D2EFED70C2E1E
:10024C00FCD70B2EFAD700000000000E8216154AC0
:10025C00162ACCD7010E175E000E185AC2D7000E04
:10026C008216030E176E000E186E1750181056E0FB
:10027C00156A166A800E006E800E1618005C02E17C
:10028C00155007081DE315C001F0010E006E01505A
:10029C0004E000360090FF0FFBD700508312060ECF
:1002AC000B6E130E0C6EAD0E0D6E0D2EFED70C2EAE
:1002BC00FCD70B2EFAD700000000154A162ADAD705
:1002CC00156A166A800E006E800E1618005C02E12C
:1002DC00155007081EE315C001F0800E006E01508A
:1002EC0004E00032009EFF0FFBD7001E0050831667
:1002FC00060E0B6E130E0C6EAD0E0D6E0D2EFED784
:10030C000C2EFCD70B2EFAD700000000154A162A2B
:10031C00D9D7010E175E000E185AA7D78ED6FFD765
:020000040030CA
:0D000100021F1EFF8381FF0FC00FE00F40A4
:00000001FF
